{
  "_format": "hh-sol-artifact-1",
  "contractName": "FusionStaking",
  "sourceName": "contracts/tokens/staking.sol",
  "abi": [
    {
      "inputs": [
        {
          "internalType": "address",
          "name": "_stakingToken",
          "type": "address"
        },
        {
          "internalType": "address",
          "name": "_rewardsToken",
          "type": "address"
        },
        {
          "internalType": "address",
          "name": "administratorAddress",
          "type": "address"
        },
        {
          "internalType": "address",
          "name": "_feeReceiver",
          "type": "address"
        }
      ],
      "stateMutability": "nonpayable",
      "type": "constructor"
    },
    {
      "anonymous": false,
      "inputs": [
        {
          "indexed": true,
          "internalType": "address",
          "name": "previousOwner",
          "type": "address"
        },
        {
          "indexed": true,
          "internalType": "address",
          "name": "newOwner",
          "type": "address"
        }
      ],
      "name": "OwnershipTransferred",
      "type": "event"
    },
    {
      "inputs": [
        {
          "internalType": "uint256",
          "name": "_poolID",
          "type": "uint256"
        },
        {
          "internalType": "uint256",
          "name": "_newAPY",
          "type": "uint256"
        }
      ],
      "name": "adjustAPY",
      "outputs": [],
      "stateMutability": "nonpayable",
      "type": "function"
    },
    {
      "inputs": [
        {
          "internalType": "address",
          "name": "userAddress",
          "type": "address"
        },
        {
          "internalType": "uint256",
          "name": "poolID",
          "type": "uint256"
        }
      ],
      "name": "calculateUserRewards",
      "outputs": [
        {
          "internalType": "uint256",
          "name": "",
          "type": "uint256"
        }
      ],
      "stateMutability": "view",
      "type": "function"
    },
    {
      "inputs": [
        {
          "internalType": "uint256",
          "name": "_poolID",
          "type": "uint256"
        }
      ],
      "name": "claimReward",
      "outputs": [],
      "stateMutability": "nonpayable",
      "type": "function"
    },
    {
      "inputs": [
        {
          "internalType": "string",
          "name": "_poolName",
          "type": "string"
        },
        {
          "internalType": "uint256",
          "name": "_stakingDuration",
          "type": "uint256"
        },
        {
          "internalType": "uint256",
          "name": "_APY",
          "type": "uint256"
        },
        {
          "internalType": "uint256",
          "name": "_minimumDeposit",
          "type": "uint256"
        }
      ],
      "name": "createPool",
      "outputs": [
        {
          "internalType": "uint256",
          "name": "_createdPoolIndex",
          "type": "uint256"
        }
      ],
      "stateMutability": "nonpayable",
      "type": "function"
    },
    {
      "inputs": [],
      "name": "feeReceiver",
      "outputs": [
        {
          "internalType": "address",
          "name": "",
          "type": "address"
        }
      ],
      "stateMutability": "view",
      "type": "function"
    },
    {
      "inputs": [
        {
          "internalType": "uint256",
          "name": "_poolID",
          "type": "uint256"
        }
      ],
      "name": "getAPY",
      "outputs": [
        {
          "internalType": "uint256",
          "name": "",
          "type": "uint256"
        }
      ],
      "stateMutability": "view",
      "type": "function"
    },
    {
      "inputs": [
        {
          "internalType": "uint256",
          "name": "_poolID",
          "type": "uint256"
        }
      ],
      "name": "getPoolState",
      "outputs": [
        {
          "internalType": "bool",
          "name": "_stakingIsPaused",
          "type": "bool"
        }
      ],
      "stateMutability": "view",
      "type": "function"
    },
    {
      "inputs": [],
      "name": "getTotalStaked",
      "outputs": [
        {
          "internalType": "uint256",
          "name": "",
          "type": "uint256"
        }
      ],
      "stateMutability": "view",
      "type": "function"
    },
    {
      "inputs": [
        {
          "internalType": "uint256",
          "name": "poolID",
          "type": "uint256"
        },
        {
          "internalType": "address",
          "name": "userAddress",
          "type": "address"
        }
      ],
      "name": "getUserStakingBalance",
      "outputs": [
        {
          "internalType": "uint256",
          "name": "",
          "type": "uint256"
        }
      ],
      "stateMutability": "view",
      "type": "function"
    },
    {
      "inputs": [],
      "name": "owner",
      "outputs": [
        {
          "internalType": "address",
          "name": "",
          "type": "address"
        }
      ],
      "stateMutability": "view",
      "type": "function"
    },
    {
      "inputs": [
        {
          "internalType": "uint256",
          "name": "",
          "type": "uint256"
        }
      ],
      "name": "pool",
      "outputs": [
        {
          "internalType": "string",
          "name": "poolName",
          "type": "string"
        },
        {
          "internalType": "uint256",
          "name": "stakingDuration",
          "type": "uint256"
        },
        {
          "internalType": "uint256",
          "name": "APY",
          "type": "uint256"
        },
        {
          "internalType": "uint256",
          "name": "minimumDeposit",
          "type": "uint256"
        },
        {
          "internalType": "uint256",
          "name": "totalStaked",
          "type": "uint256"
        },
        {
          "internalType": "bool",
          "name": "stakingIsPaused",
          "type": "bool"
        },
        {
          "internalType": "bool",
          "name": "poolIsInitialized",
          "type": "bool"
        }
      ],
      "stateMutability": "view",
      "type": "function"
    },
    {
      "inputs": [
        {
          "internalType": "uint256",
          "name": "",
          "type": "uint256"
        }
      ],
      "name": "poolIndexArray",
      "outputs": [
        {
          "internalType": "uint256",
          "name": "",
          "type": "uint256"
        }
      ],
      "stateMutability": "view",
      "type": "function"
    },
    {
      "inputs": [],
      "name": "renounceOwnership",
      "outputs": [],
      "stateMutability": "nonpayable",
      "type": "function"
    },
    {
      "inputs": [],
      "name": "rewardsToken",
      "outputs": [
        {
          "internalType": "contract IERC20",
          "name": "",
          "type": "address"
        }
      ],
      "stateMutability": "view",
      "type": "function"
    },
    {
      "inputs": [
        {
          "internalType": "uint256",
          "name": "_amount",
          "type": "uint256"
        },
        {
          "internalType": "uint256",
          "name": "poolID",
          "type": "uint256"
        }
      ],
      "name": "stake",
      "outputs": [],
      "stateMutability": "nonpayable",
      "type": "function"
    },
    {
      "inputs": [],
      "name": "stakingToken",
      "outputs": [
        {
          "internalType": "contract IERC20",
          "name": "",
          "type": "address"
        }
      ],
      "stateMutability": "view",
      "type": "function"
    },
    {
      "inputs": [
        {
          "internalType": "uint256",
          "name": "_poolID",
          "type": "uint256"
        }
      ],
      "name": "togglePausePool",
      "outputs": [],
      "stateMutability": "nonpayable",
      "type": "function"
    },
    {
      "inputs": [
        {
          "internalType": "address",
          "name": "newOwner",
          "type": "address"
        }
      ],
      "name": "transferOwnership",
      "outputs": [],
      "stateMutability": "nonpayable",
      "type": "function"
    }
  ],
  "bytecode": "0x60806040523480156200001157600080fd5b506040516200156838038062001568833981016040819052620000349162000115565b6200003f33620000a8565b600280546001600160a01b038087166001600160a01b03199283161790925560018054928616929091169190911790556200007a82620000a8565b600380546001600160a01b0319166001600160a01b0392909216919091179055505060006005555062000172565b600080546001600160a01b038381166001600160a01b0319831681178455604051919092169283917f8be0079c531659141344cd1fd0a4f28419497f9722a3daafe3b4186f6b6457e09190a35050565b80516001600160a01b03811681146200011057600080fd5b919050565b600080600080608085870312156200012c57600080fd5b6200013785620000f8565b93506200014760208601620000f8565b92506200015760408601620000f8565b91506200016760608601620000f8565b905092959194509250565b6113e680620001826000396000f3fe608060405234801561001057600080fd5b50600436106101165760003560e01c8063ae9ffcc6116100a2578063e1a7c82311610071578063e1a7c82314610271578063eeee849b14610284578063f2fde38b146102a7578063fe313112146102ba578063ffe84abd146102e057600080fd5b8063ae9ffcc6146101db578063b159751714610215578063b3f006741461024b578063d1af0c7d1461025e57600080fd5b80637b0472f0116100e95780637b0472f01461017e5780638da5cb5b14610191578063a208298b146101a2578063ad6e8932146101b5578063ae169a50146101c857600080fd5b80630917e7761461011b578063715018a61461013657806372f702f3146101405780637a7ff0dd1461016b575b600080fd5b6101236102f3565b6040519081526020015b60405180910390f35b61013e61033a565b005b600254610153906001600160a01b031681565b6040516001600160a01b03909116815260200161012d565b610123610179366004611089565b610379565b61013e61018c3660046111df565b61046f565b6000546001600160a01b0316610153565b6101236101b03660046110d5565b6107b3565b61013e6101c336600461119a565b6108ac565b61013e6101d636600461119a565b6108f9565b6101236101e93660046111b3565b60008281526004602090815260408083206001600160a01b038516845260050190915290205492915050565b61023b61022336600461119a565b60009081526004602052604090206009015460ff1690565b604051901515815260200161012d565b600354610153906001600160a01b031681565b600154610153906001600160a01b031681565b61012361027f36600461119a565b610d9e565b61012361029236600461119a565b60009081526004602052604090206002015490565b61013e6102b5366004611067565b610dbf565b6102cd6102c836600461119a565b610e5a565b60405161012d9796959493929190611201565b61013e6102ee3660046111df565b610f23565b60008060005b600654811015610334576000818152600460208190526040909120015461032090836112c4565b91508061032c81611369565b9150506102f9565b50919050565b6000546001600160a01b0316331461036d5760405162461bcd60e51b81526004016103649061128f565b60405180910390fd5b6103776000610f62565b565b60008181526004602090815260408083206001600160a01b038616845260060190915281205460ff161515600114156104655760008281526004602090815260408083206001600160a01b0387168452600701909152812054906103dd824261131d565b60008581526004602090815260408083206001600160a01b038a168452600501909152812054919250610413620f4240836112dc565b905060006301e13380610428856127106112fe565b61043291906112dc565b60008881526004602052604090206002015461044e90846112fe565b61045891906112fe565b9550610469945050505050565b5060005b92915050565b60008181526004602052604090206009015460ff6101009091041615156001146104d15760405162461bcd60e51b8152602060048201526013602482015272141bdbdb08191bd95cc81b9bdd08195e1a5cdd606a1b6044820152606401610364565b60008181526004602052604090206009015460ff16156105595760405162461bcd60e51b815260206004820152603e60248201527f5374616b696e6720696e207468697320706f6f6c2069732063757272656e746c60448201527f79205061757365642e20506c6561736520636f6e746163742061646d696e00006064820152608401610364565b600081815260046020908152604080832033845260060190915290205460ff16156105ec5760405162461bcd60e51b815260206004820152603d60248201527f596f752063757272656e746c7920686176652061207374616b6520696e20746860448201527f697320706f6f6c2e20596f75206861766520746f20556e7374616b652e0000006064820152608401610364565b600081815260046020526040902060030154821015610675576040805162461bcd60e51b81526020600482015260248101919091527f7374616b6528293a20596f752061726520747279696e6720746f207374616b6560448201527f2062656c6f7720746865206d696e696d756d20666f72207468697320706f6f6c6064820152608401610364565b600081815260046020819052604082200180548492906106969084906112c4565b90915550506000818152600460209081526040808320338452600501909152812080548492906106c79084906112c4565b90915550506002546040516323b872dd60e01b8152336004820152306024820152604481018490526001600160a01b03909116906323b872dd90606401602060405180830381600087803b15801561071e57600080fd5b505af1158015610732573d6000803e3d6000fd5b505050506040513d601f19601f8201168201806040525081019061075691906110b3565b506000908152600460209081526040808320600881018054600180820183559186528486200180546001600160a01b031916339081179091558552600682018452828520805460ff19169091179055600701909152902042905550565b600080546001600160a01b031633146107de5760405162461bcd60e51b81526004016103649061128f565b6005546000908152600460209081526040909120865161080092880190610fb2565b50600580546000908152600460205260408082206001908101889055835483528183206002018790558354835281832060030186905583548352908220600901805461ff00191661010017905582546006805480840182559084527ff652222313e28459528d920b65115c16c04f3efc82aaedc97be59f3f377c0d3f018190559092919061088f9084906112c4565b90915550506005546108a39060019061131d565b95945050505050565b6000546001600160a01b031633146108d65760405162461bcd60e51b81526004016103649061128f565b6000908152600460205260409020600901805460ff19811660ff90911615179055565b600081815260046020908152604080832033845260060190915290205460ff16151560011461097c5760405162461bcd60e51b815260206004820152602960248201527f596f752063757272656e746c792068617665206e6f207374616b6520696e20746044820152683434b9903837b7b61760b91b6064820152608401610364565b6000818152600460208181526040808420338552600781018352818520546005820184529185205494869052929091526001909101549091906109bf834261131d565b1015610bbb5760006109d4620f4240836112dc565b905060006109e38260146112fe565b6109ef906127106112fe565b90506109fb818461131d565b6000868152600460209081526040808320338452600501909152812080549295508392909190610a2c90849061131d565b909155505060025460035460405163a9059cbb60e01b81526001600160a01b0391821660048201526024810184905291169063a9059cbb90604401602060405180830381600087803b158015610a8157600080fd5b505af1158015610a95573d6000803e3d6000fd5b505050506040513d601f19601f82011682018060405250810190610ab991906110b3565b50600085815260046020818152604080842033808652600590910190925280842093909355600254925163a9059cbb60e01b815291820152602481018590526001600160a01b039091169063a9059cbb90604401602060405180830381600087803b158015610b2757600080fd5b505af1158015610b3b573d6000803e3d6000fd5b505050506040513d601f19601f82011682018060405250810190610b5f91906110b3565b50610b6a81846112c4565b60008681526004602081905260408220018054909190610b8b90849061131d565b90915550505060008481526004602090815260408083203384526006019091529020805460ff1916905550505050565b6000610bc73385610379565b905060008111610c245760405162461bcd60e51b815260206004820152602260248201527f5265776172647320697320746f6f20736d616c6c20746f20626520636c61696d604482015261195960f21b6064820152608401610364565b60015460405163a9059cbb60e01b8152336004820152602481018390526001600160a01b039091169063a9059cbb90604401602060405180830381600087803b158015610c7057600080fd5b505af1158015610c84573d6000803e3d6000fd5b505050506040513d601f19601f82011682018060405250810190610ca891906110b3565b50600084815260046020818152604080842033808652600590910190925280842093909355600254925163a9059cbb60e01b815291820152602481018490526001600160a01b039091169063a9059cbb90604401602060405180830381600087803b158015610d1657600080fd5b505af1158015610d2a573d6000803e3d6000fd5b505050506040513d601f19601f82011682018060405250810190610d4e91906110b3565b5060008481526004602081905260408220018054849290610d7090849061131d565b909155505050600092835250506004602090815260408083203384526006019091529020805460ff19169055565b60068181548110610dae57600080fd5b600091825260209091200154905081565b6000546001600160a01b03163314610de95760405162461bcd60e51b81526004016103649061128f565b6001600160a01b038116610e4e5760405162461bcd60e51b815260206004820152602660248201527f4f776e61626c653a206e6577206f776e657220697320746865207a65726f206160448201526564647265737360d01b6064820152608401610364565b610e5781610f62565b50565b600460205260009081526040902080548190610e7590611334565b80601f0160208091040260200160405190810160405280929190818152602001828054610ea190611334565b8015610eee5780601f10610ec357610100808354040283529160200191610eee565b820191906000526020600020905b815481529060010190602001808311610ed157829003601f168201915b505050600184015460028501546003860154600487015460099097015495969295919450925060ff8082169161010090041687565b6000546001600160a01b03163314610f4d5760405162461bcd60e51b81526004016103649061128f565b60009182526004602052604090912060020155565b600080546001600160a01b038381166001600160a01b0319831681178455604051919092169283917f8be0079c531659141344cd1fd0a4f28419497f9722a3daafe3b4186f6b6457e09190a35050565b828054610fbe90611334565b90600052602060002090601f016020900481019282610fe05760008555611026565b82601f10610ff957805160ff1916838001178555611026565b82800160010185558215611026579182015b8281111561102657825182559160200191906001019061100b565b50611032929150611036565b5090565b5b808211156110325760008155600101611037565b80356001600160a01b038116811461106257600080fd5b919050565b60006020828403121561107957600080fd5b6110828261104b565b9392505050565b6000806040838503121561109c57600080fd5b6110a58361104b565b946020939093013593505050565b6000602082840312156110c557600080fd5b8151801515811461108257600080fd5b600080600080608085870312156110eb57600080fd5b843567ffffffffffffffff8082111561110357600080fd5b818701915087601f83011261111757600080fd5b8135818111156111295761112961139a565b604051601f8201601f19908116603f011681019083821181831017156111515761115161139a565b816040528281528a602084870101111561116a57600080fd5b82602086016020830137600060209382018401529a91890135995050604088013597606001359650945050505050565b6000602082840312156111ac57600080fd5b5035919050565b600080604083850312156111c657600080fd5b823591506111d66020840161104b565b90509250929050565b600080604083850312156111f257600080fd5b50508035926020909101359150565b60e08152600088518060e084015260005b81811015611230576020818c01810151610100868401015201611212565b8181111561124357600061010083860101525b50610100601f19601f83011684010191505087602083015286604083015285606083015284608083015261127b60a083018515159052565b82151560c083015298975050505050505050565b6020808252818101527f4f776e61626c653a2063616c6c6572206973206e6f7420746865206f776e6572604082015260600190565b600082198211156112d7576112d7611384565b500190565b6000826112f957634e487b7160e01b600052601260045260246000fd5b500490565b600081600019048311821515161561131857611318611384565b500290565b60008282101561132f5761132f611384565b500390565b600181811c9082168061134857607f821691505b6020821081141561033457634e487b7160e01b600052602260045260246000fd5b600060001982141561137d5761137d611384565b5060010190565b634e487b7160e01b600052601160045260246000fd5b634e487b7160e01b600052604160045260246000fdfea2646970667358221220944d6ea2d9e41b6dc8c3639a0fcaa71f94b5e9bee162f88e764d26af1e0533d564736f6c63430008070033",
  "linkReferences": {},
  "deployedLinkReferences": {}
}