{
  "_format": "hh-sol-artifact-1",
  "contractName": "FusionStaking",
  "sourceName": "contracts/tokens/staking.sol",
  "abi": [
    {
      "inputs": [
        {
          "internalType": "address",
          "name": "_stakingToken",
          "type": "address"
        },
        {
          "internalType": "address",
          "name": "_rewardsToken",
          "type": "address"
        },
        {
          "internalType": "address",
          "name": "administratorAddress",
          "type": "address"
        },
        {
          "internalType": "address",
          "name": "_feeReceiver",
          "type": "address"
        }
      ],
      "stateMutability": "nonpayable",
      "type": "constructor"
    },
    {
      "anonymous": false,
      "inputs": [
        {
          "indexed": true,
          "internalType": "address",
          "name": "previousOwner",
          "type": "address"
        },
        {
          "indexed": true,
          "internalType": "address",
          "name": "newOwner",
          "type": "address"
        }
      ],
      "name": "OwnershipTransferred",
      "type": "event"
    },
    {
      "inputs": [
        {
          "internalType": "uint256",
          "name": "_poolID",
          "type": "uint256"
        },
        {
          "internalType": "uint256",
          "name": "_newAPY",
          "type": "uint256"
        }
      ],
      "name": "adjustAPY",
      "outputs": [],
      "stateMutability": "nonpayable",
      "type": "function"
    },
    {
      "inputs": [
        {
          "internalType": "address",
          "name": "userAddress",
          "type": "address"
        },
        {
          "internalType": "uint256",
          "name": "poolID",
          "type": "uint256"
        }
      ],
      "name": "calculateUserRewards",
      "outputs": [
        {
          "internalType": "uint256",
          "name": "",
          "type": "uint256"
        }
      ],
      "stateMutability": "view",
      "type": "function"
    },
    {
      "inputs": [
        {
          "internalType": "uint256",
          "name": "_poolID",
          "type": "uint256"
        }
      ],
      "name": "claimReward",
      "outputs": [],
      "stateMutability": "nonpayable",
      "type": "function"
    },
    {
      "inputs": [
        {
          "internalType": "string",
          "name": "_poolName",
          "type": "string"
        },
        {
          "internalType": "uint256",
          "name": "_stakingDuration",
          "type": "uint256"
        },
        {
          "internalType": "uint256",
          "name": "_APY",
          "type": "uint256"
        },
        {
          "internalType": "uint256",
          "name": "_minimumDeposit",
          "type": "uint256"
        }
      ],
      "name": "createPool",
      "outputs": [
        {
          "internalType": "uint256",
          "name": "_createdPoolIndex",
          "type": "uint256"
        }
      ],
      "stateMutability": "nonpayable",
      "type": "function"
    },
    {
      "inputs": [],
      "name": "feeReceiver",
      "outputs": [
        {
          "internalType": "address",
          "name": "",
          "type": "address"
        }
      ],
      "stateMutability": "view",
      "type": "function"
    },
    {
      "inputs": [
        {
          "internalType": "uint256",
          "name": "_poolID",
          "type": "uint256"
        }
      ],
      "name": "getAPY",
      "outputs": [
        {
          "internalType": "uint256",
          "name": "",
          "type": "uint256"
        }
      ],
      "stateMutability": "view",
      "type": "function"
    },
    {
      "inputs": [
        {
          "internalType": "uint256",
          "name": "poolID",
          "type": "uint256"
        },
        {
          "internalType": "address",
          "name": "userAddress",
          "type": "address"
        }
      ],
      "name": "getLastStakeDate",
      "outputs": [
        {
          "internalType": "uint256",
          "name": "",
          "type": "uint256"
        }
      ],
      "stateMutability": "view",
      "type": "function"
    },
    {
      "inputs": [
        {
          "internalType": "uint256",
          "name": "_poolID",
          "type": "uint256"
        }
      ],
      "name": "getPoolState",
      "outputs": [
        {
          "internalType": "bool",
          "name": "_stakingIsPaused",
          "type": "bool"
        }
      ],
      "stateMutability": "view",
      "type": "function"
    },
    {
      "inputs": [],
      "name": "getTotalStaked",
      "outputs": [
        {
          "internalType": "uint256",
          "name": "",
          "type": "uint256"
        }
      ],
      "stateMutability": "view",
      "type": "function"
    },
    {
      "inputs": [
        {
          "internalType": "uint256",
          "name": "poolID",
          "type": "uint256"
        },
        {
          "internalType": "address",
          "name": "userAddress",
          "type": "address"
        }
      ],
      "name": "getUserStakingBalance",
      "outputs": [
        {
          "internalType": "uint256",
          "name": "",
          "type": "uint256"
        }
      ],
      "stateMutability": "view",
      "type": "function"
    },
    {
      "inputs": [],
      "name": "owner",
      "outputs": [
        {
          "internalType": "address",
          "name": "",
          "type": "address"
        }
      ],
      "stateMutability": "view",
      "type": "function"
    },
    {
      "inputs": [
        {
          "internalType": "uint256",
          "name": "",
          "type": "uint256"
        }
      ],
      "name": "pool",
      "outputs": [
        {
          "internalType": "string",
          "name": "poolName",
          "type": "string"
        },
        {
          "internalType": "uint256",
          "name": "stakingDuration",
          "type": "uint256"
        },
        {
          "internalType": "uint256",
          "name": "APY",
          "type": "uint256"
        },
        {
          "internalType": "uint256",
          "name": "minimumDeposit",
          "type": "uint256"
        },
        {
          "internalType": "uint256",
          "name": "totalStaked",
          "type": "uint256"
        },
        {
          "internalType": "bool",
          "name": "stakingIsPaused",
          "type": "bool"
        },
        {
          "internalType": "bool",
          "name": "poolIsInitialized",
          "type": "bool"
        }
      ],
      "stateMutability": "view",
      "type": "function"
    },
    {
      "inputs": [
        {
          "internalType": "uint256",
          "name": "",
          "type": "uint256"
        }
      ],
      "name": "poolIndexArray",
      "outputs": [
        {
          "internalType": "uint256",
          "name": "",
          "type": "uint256"
        }
      ],
      "stateMutability": "view",
      "type": "function"
    },
    {
      "inputs": [],
      "name": "renounceOwnership",
      "outputs": [],
      "stateMutability": "nonpayable",
      "type": "function"
    },
    {
      "inputs": [],
      "name": "rewardIntervalInDays",
      "outputs": [
        {
          "internalType": "uint256",
          "name": "",
          "type": "uint256"
        }
      ],
      "stateMutability": "view",
      "type": "function"
    },
    {
      "inputs": [],
      "name": "rewardsToken",
      "outputs": [
        {
          "internalType": "contract IERC20",
          "name": "",
          "type": "address"
        }
      ],
      "stateMutability": "view",
      "type": "function"
    },
    {
      "inputs": [
        {
          "internalType": "uint256",
          "name": "_interval",
          "type": "uint256"
        }
      ],
      "name": "setRewardInterval",
      "outputs": [],
      "stateMutability": "nonpayable",
      "type": "function"
    },
    {
      "inputs": [
        {
          "internalType": "uint256",
          "name": "_amount",
          "type": "uint256"
        },
        {
          "internalType": "uint256",
          "name": "poolID",
          "type": "uint256"
        }
      ],
      "name": "stake",
      "outputs": [],
      "stateMutability": "nonpayable",
      "type": "function"
    },
    {
      "inputs": [],
      "name": "stakingToken",
      "outputs": [
        {
          "internalType": "contract IERC20",
          "name": "",
          "type": "address"
        }
      ],
      "stateMutability": "view",
      "type": "function"
    },
    {
      "inputs": [
        {
          "internalType": "uint256",
          "name": "_poolID",
          "type": "uint256"
        }
      ],
      "name": "togglePausePool",
      "outputs": [],
      "stateMutability": "nonpayable",
      "type": "function"
    },
    {
      "inputs": [
        {
          "internalType": "address",
          "name": "newOwner",
          "type": "address"
        }
      ],
      "name": "transferOwnership",
      "outputs": [],
      "stateMutability": "nonpayable",
      "type": "function"
    }
  ],
  "bytecode": "0x60806040523480156200001157600080fd5b506040516200178d3803806200178d83398101604081905262000034916200011d565b6200003f33620000b0565b600280546001600160a01b038087166001600160a01b03199283161790925560018054928616929091169190911790556200007a82620000b0565b600380546001600160a01b0319166001600160a01b039290921691909117905550506000600555506301e133806007556200017a565b600080546001600160a01b038381166001600160a01b0319831681178455604051919092169283917f8be0079c531659141344cd1fd0a4f28419497f9722a3daafe3b4186f6b6457e09190a35050565b80516001600160a01b03811681146200011857600080fd5b919050565b600080600080608085870312156200013457600080fd5b6200013f8562000100565b93506200014f6020860162000100565b92506200015f6040860162000100565b91506200016f6060860162000100565b905092959194509250565b611603806200018a6000396000f3fe608060405234801561001057600080fd5b50600436106101375760003560e01c8063ae9ffcc6116100b8578063e3e842131161007c578063e3e84213146102df578063e52ef431146102f2578063eeee849b146102fb578063f2fde38b1461031e578063fe31311214610331578063ffe84abd1461035757600080fd5b8063ae9ffcc614610236578063b159751714610270578063b3f00674146102a6578063d1af0c7d146102b9578063e1a7c823146102cc57600080fd5b80638a41e5d7116100ff5780638a41e5d7146101b25780638da5cb5b146101ec578063a208298b146101fd578063ad6e893214610210578063ae169a501461022357600080fd5b80630917e7761461013c578063715018a61461015757806372f702f3146101615780637a7ff0dd1461018c5780637b0472f01461019f575b600080fd5b61014461036a565b6040519081526020015b60405180910390f35b61015f6103b1565b005b600254610174906001600160a01b031681565b6040516001600160a01b03909116815260200161014e565b61014461019a3660046112a6565b6103f0565b61015f6101ad3660046113fc565b6105e6565b6101446101c03660046113d0565b60008281526004602090815260408083206001600160a01b038516845260070190915290205492915050565b6000546001600160a01b0316610174565b61014461020b3660046112f2565b61092a565b61015f61021e3660046113b7565b610a8c565b61015f6102313660046113b7565b610ad9565b6101446102443660046113d0565b60008281526004602090815260408083206001600160a01b038516845260050190915290205492915050565b61029661027e3660046113b7565b60009081526004602052604090206009015460ff1690565b604051901515815260200161014e565b600354610174906001600160a01b031681565b600154610174906001600160a01b031681565b6101446102da3660046113b7565b610f7e565b61015f6102ed3660046113b7565b610f9f565b61014460075481565b6101446103093660046113b7565b60009081526004602052604090206002015490565b61015f61032c366004611284565b610fdc565b61034461033f3660046113b7565b611077565b60405161014e979695949392919061141e565b61015f6103653660046113fc565b611140565b60008060005b6006548110156103ab576000818152600460208190526040909120015461039790836114e1565b9150806103a381611586565b915050610370565b50919050565b6000546001600160a01b031633146103e45760405162461bcd60e51b81526004016103db906114ac565b60405180910390fd5b6103ee600061117f565b565b60008181526004602090815260408083206001600160a01b038616845260060190915281205460ff161515600114156105dc5760008281526004602090815260408083206001600160a01b038716845260070190915281205490610454824261153a565b60008581526004602090815260408083206001600160a01b038a16845260050190915281205491925061048a620f4240836114f9565b60008781526004602052604081206002015491925090158015906104c05750600087815260046020526040902060020154600910155b1561050c576007546104d585620186a061151b565b6104df91906114f9565b6000888152600460205260409020600201546104fb908461151b565b610505919061151b565b90506105d0565b600087815260046020526040902060020154600a118015906105405750600087815260046020526040902060020154606310155b15610554576007546104d58561271061151b565b60008781526004602052604090206002015460641180159061058957506000878152600460205260409020600201546103e710155b156105d05760075461059d856103e861151b565b6105a791906114f9565b6000888152600460205260409020600201546105c3908461151b565b6105cd919061151b565b90505b94506105e09350505050565b5060005b92915050565b60008181526004602052604090206009015460ff6101009091041615156001146106485760405162461bcd60e51b8152602060048201526013602482015272141bdbdb08191bd95cc81b9bdd08195e1a5cdd606a1b60448201526064016103db565b60008181526004602052604090206009015460ff16156106d05760405162461bcd60e51b815260206004820152603e60248201527f5374616b696e6720696e207468697320706f6f6c2069732063757272656e746c60448201527f79205061757365642e20506c6561736520636f6e746163742061646d696e000060648201526084016103db565b600081815260046020908152604080832033845260060190915290205460ff16156107635760405162461bcd60e51b815260206004820152603d60248201527f596f752063757272656e746c7920686176652061207374616b6520696e20746860448201527f697320706f6f6c2e20596f75206861766520746f20556e7374616b652e00000060648201526084016103db565b6000818152600460205260409020600301548210156107ec576040805162461bcd60e51b81526020600482015260248101919091527f7374616b6528293a20596f752061726520747279696e6720746f207374616b6560448201527f2062656c6f7720746865206d696e696d756d20666f72207468697320706f6f6c60648201526084016103db565b6000818152600460208190526040822001805484929061080d9084906114e1565b909155505060008181526004602090815260408083203384526005019091528120805484929061083e9084906114e1565b90915550506002546040516323b872dd60e01b8152336004820152306024820152604481018490526001600160a01b03909116906323b872dd90606401602060405180830381600087803b15801561089557600080fd5b505af11580156108a9573d6000803e3d6000fd5b505050506040513d601f19601f820116820180604052508101906108cd91906112d0565b506000908152600460209081526040808320600881018054600180820183559186528486200180546001600160a01b031916339081179091558552600682018452828520805460ff19169091179055600701909152902042905550565b600080546001600160a01b031633146109555760405162461bcd60e51b81526004016103db906114ac565b60008311801561096657506103e883105b6109be5760405162461bcd60e51b8152602060048201526024808201527f4150592063616e206f6e6c79206265206265747765656e20312520616e6420316044820152633030302560e01b60648201526084016103db565b600554600090815260046020908152604090912086516109e0928801906111cf565b50600580546000908152600460205260408082206001908101889055835483528183206002018790558354835281832060030186905583548352908220600901805461ff00191661010017905582546006805480840182559084527ff652222313e28459528d920b65115c16c04f3efc82aaedc97be59f3f377c0d3f0181905590929190610a6f9084906114e1565b9091555050600554610a839060019061153a565b95945050505050565b6000546001600160a01b03163314610ab65760405162461bcd60e51b81526004016103db906114ac565b6000908152600460205260409020600901805460ff19811660ff90911615179055565b600081815260046020908152604080832033845260060190915290205460ff161515600114610b5c5760405162461bcd60e51b815260206004820152602960248201527f596f752063757272656e746c792068617665206e6f207374616b6520696e20746044820152683434b9903837b7b61760b91b60648201526084016103db565b600081815260046020818152604080842033855260078101835281852054600582018452918520549486905292909152600190910154909190610b9f834261153a565b1015610d9b576000610bb4620f4240836114f9565b90506000610bc382601461151b565b610bcf9061271061151b565b9050610bdb818461153a565b6000868152600460209081526040808320338452600501909152812080549295508392909190610c0c90849061153a565b909155505060025460035460405163a9059cbb60e01b81526001600160a01b0391821660048201526024810184905291169063a9059cbb90604401602060405180830381600087803b158015610c6157600080fd5b505af1158015610c75573d6000803e3d6000fd5b505050506040513d601f19601f82011682018060405250810190610c9991906112d0565b50600085815260046020818152604080842033808652600590910190925280842093909355600254925163a9059cbb60e01b815291820152602481018590526001600160a01b039091169063a9059cbb90604401602060405180830381600087803b158015610d0757600080fd5b505af1158015610d1b573d6000803e3d6000fd5b505050506040513d601f19601f82011682018060405250810190610d3f91906112d0565b50610d4a81846114e1565b60008681526004602081905260408220018054909190610d6b90849061153a565b90915550505060008481526004602090815260408083203384526006019091529020805460ff1916905550505050565b6000610da733856103f0565b905060008111610e045760405162461bcd60e51b815260206004820152602260248201527f5265776172647320697320746f6f20736d616c6c20746f20626520636c61696d604482015261195960f21b60648201526084016103db565b60015460405163a9059cbb60e01b8152336004820152602481018390526001600160a01b039091169063a9059cbb90604401602060405180830381600087803b158015610e5057600080fd5b505af1158015610e64573d6000803e3d6000fd5b505050506040513d601f19601f82011682018060405250810190610e8891906112d0565b50600084815260046020818152604080842033808652600590910190925280842093909355600254925163a9059cbb60e01b815291820152602481018490526001600160a01b039091169063a9059cbb90604401602060405180830381600087803b158015610ef657600080fd5b505af1158015610f0a573d6000803e3d6000fd5b505050506040513d601f19601f82011682018060405250810190610f2e91906112d0565b5060008481526004602081905260408220018054849290610f5090849061153a565b909155505050600092835250506004602090815260408083203384526006019091529020805460ff19169055565b60068181548110610f8e57600080fd5b600091825260209091200154905081565b6000546001600160a01b03163314610fc95760405162461bcd60e51b81526004016103db906114ac565b610fd6816201518061151b565b60075550565b6000546001600160a01b031633146110065760405162461bcd60e51b81526004016103db906114ac565b6001600160a01b03811661106b5760405162461bcd60e51b815260206004820152602660248201527f4f776e61626c653a206e6577206f776e657220697320746865207a65726f206160448201526564647265737360d01b60648201526084016103db565b6110748161117f565b50565b60046020526000908152604090208054819061109290611551565b80601f01602080910402602001604051908101604052809291908181526020018280546110be90611551565b801561110b5780601f106110e05761010080835404028352916020019161110b565b820191906000526020600020905b8154815290600101906020018083116110ee57829003601f168201915b505050600184015460028501546003860154600487015460099097015495969295919450925060ff8082169161010090041687565b6000546001600160a01b0316331461116a5760405162461bcd60e51b81526004016103db906114ac565b60009182526004602052604090912060020155565b600080546001600160a01b038381166001600160a01b0319831681178455604051919092169283917f8be0079c531659141344cd1fd0a4f28419497f9722a3daafe3b4186f6b6457e09190a35050565b8280546111db90611551565b90600052602060002090601f0160209004810192826111fd5760008555611243565b82601f1061121657805160ff1916838001178555611243565b82800160010185558215611243579182015b82811115611243578251825591602001919060010190611228565b5061124f929150611253565b5090565b5b8082111561124f5760008155600101611254565b80356001600160a01b038116811461127f57600080fd5b919050565b60006020828403121561129657600080fd5b61129f82611268565b9392505050565b600080604083850312156112b957600080fd5b6112c283611268565b946020939093013593505050565b6000602082840312156112e257600080fd5b8151801515811461129f57600080fd5b6000806000806080858703121561130857600080fd5b843567ffffffffffffffff8082111561132057600080fd5b818701915087601f83011261133457600080fd5b813581811115611346576113466115b7565b604051601f8201601f19908116603f0116810190838211818310171561136e5761136e6115b7565b816040528281528a602084870101111561138757600080fd5b82602086016020830137600060209382018401529a91890135995050604088013597606001359650945050505050565b6000602082840312156113c957600080fd5b5035919050565b600080604083850312156113e357600080fd5b823591506113f360208401611268565b90509250929050565b6000806040838503121561140f57600080fd5b50508035926020909101359150565b60e08152600088518060e084015260005b8181101561144d576020818c0181015161010086840101520161142f565b8181111561146057600061010083860101525b50610100601f19601f83011684010191505087602083015286604083015285606083015284608083015261149860a083018515159052565b82151560c083015298975050505050505050565b6020808252818101527f4f776e61626c653a2063616c6c6572206973206e6f7420746865206f776e6572604082015260600190565b600082198211156114f4576114f46115a1565b500190565b60008261151657634e487b7160e01b600052601260045260246000fd5b500490565b6000816000190483118215151615611535576115356115a1565b500290565b60008282101561154c5761154c6115a1565b500390565b600181811c9082168061156557607f821691505b602082108114156103ab57634e487b7160e01b600052602260045260246000fd5b600060001982141561159a5761159a6115a1565b5060010190565b634e487b7160e01b600052601160045260246000fd5b634e487b7160e01b600052604160045260246000fdfea26469706673582212208fa707b56eaf12981ab8571a20374a6d3387eb51c7b66d598c8dcd5cad0e231564736f6c63430008070033",
  "linkReferences": {},
  "deployedLinkReferences": {}
}